:020000040800F2
:10000000C017002021020008EF2700083321000854
:10001000ED270008550500081F2C0008000000000F
:10002000000000000000000000000000890100083E
:100030006706000800000000CD01000851290008F3
:100040003B0200083B0200083B0200083B0200089C
:100050003B0200083B0200083B0200083B0200088C
:100060003B0200083B0200083B0200083106000882
:100070003B0200083B0200083B0200083B0200086C
:100080003B0200083B0200083B0200083B0200085C
:100090003B0200083B0200083B0200083B0200084C
:1000A0003B0200083B0200083B0200083B0200083C
:1000B0003B0200083B020008F92900083B02000847
:1000C0003B0200083B0200083B0200083B0200081C
:1000D0003B0200083B0200083B0200083B0200080C
:1000E0003B0200083B0200083B02000800F002F857
:1000F00000F03AF80AA090E8000C82448344AAF188
:100100000107DA4501D100F02FF8AFF2090EBAE885
:100110000F0013F0010F18BFFB1A43F0010318473B
:100120005039000070390000103A24BF78C878C1F7
:10013000FAD8520724BF30C830C144BF04680C60ED
:10014000704700000023002400250026103A28BF35
:1001500078C1FBD8520728BF30C148BF0B60704739
:100160001FB51FBD10B510BD00F0D6F81146FFF742
:10017000F7FF02F07BFD00F0F4F803B4FFF7F2FFA5
:1001800003BC00F0FBF80000224B19680868B0E8D7
:10019000F00F80F30988BFF36F8F4FF0000080F3FA
:1001A00011884EF00D0E70470000000006480068F0
:1001B000006880F3088862B661B6BFF34F8FBFF363
:1001C0006F8F00DF00BF00BF08ED00E0EFF3098094
:1001D000BFF36F8F0F4B1A6820E9F00F106008B55E
:1001E0004FF0500080F31188BFF34F8FBFF36F8F34
:1001F00003F0ACF94FF0000080F31188BDE808402F
:1002000019680868B0E8F00F80F30988BFF36F8FB2
:10021000704700BF34000020EFF3058070470000F6
:100220000948804709480047FEE7FEE7FEE7FEE78A
:10023000FEE7FEE7FEE7FEE7FEE7FEE704480549C6
:10024000054A064B70470000F5290008ED0000083C
:10025000C0110020C0170020C0130020C0130020D0
:1002600010B5203AC0F00B80B1E81850203AA0E851
:100270001850B1E81850A0E81850BFF4F5AF5FEA85
:10028000027C24BFB1E81850A0E8185044BF18C938
:1002900018C0BDE810405FEA827C24BF51F8043BDF
:1002A00040F8043B08BF7047D20728BF31F8023B33
:1002B00048BF11F8012B28BF20F8023B48BF00F8C7
:1002C000012B70474FF0000200B513469446964646
:1002D000203922BFA0E80C50A0E80C50B1F1200159
:1002E000BFF4F7AF090728BFA0E80C5048BF0CC007
:1002F0005DF804EB890028BF40F8042B08BF704765
:1003000048BF20F8022B11F0804F18BF00F8012BD6
:100310007047704770477047754600F02BF8AE463F
:1003200005006946534620F00700854618B020B501
:10033000FFF784FFBDE820404FF000064FF00007B4
:100340004FF000084FF0000B21F00701AC46ACE87D
:10035000C009ACE8C009ACE8C009ACE8C0098D46EA
:10036000704710B50446AFF300802046BDE810404A
:10037000FFF703BF004870476011002001491820B3
:10038000ABBEFEE7260002007047000002221D49B6
:100390001D4800F0DDFA1B4CDFF870B040F6543811
:1003A00001274FF4166A4FF00009A4F119054FF424
:1003B0007A762088B04206D200221021584600F0FA
:1003C00064FD2F7006E001221021584600F05DFD0B
:1003D00085F800906088404506D9012220215846C2
:1003E00000F053FD6F7008E0504506D20022202136
:1003F000584600F04AFD85F80190304602F0DCFCDA
:10040000D7E70000200000209400002000080140F1
:1004100070B5044600688168C943C90717D181686F
:1004200021F00101816000F035FD05460AE000BFC2
:1004300000F030FD401B022804D920688068C043CA
:10044000C00706D020688068C043C007F0D00020F5
:1004500070BDA06A40F01000A062E06A40F00100A8
:10046000E062012070BD10B50146406A826A12F058
:10047000500F05D0006A026BBDE8104008461047D7
:10048000816A41F40071816201688968C1F3424167
:1004900007290CD1017B51B9816A21F480718162F5
:1004A000816AC90403D4816A41F00101816200F0CC
:1004B00077F910BD10B5406A816A41F04001816250
:1004C000C16A41F00401C16200F06CF910BD10B5C1
:1004D000406A00F066F910BDF8B5002604460096A3
:1004E00000688168C943C9072DD0816841F00101C6
:1004F0008160164816490068B0FBF1F000E0401E2C
:1005000000900028FBD100F0C5FC054616E000BFB6
:1005100000F0C0FC401B022810D920688068C0434E
:10052000C0070BD0A06A40F01000A062E06A40F063
:100530000100E06284F824600120F8BD2068806832
:10054000C043C007E4D10020F8BD00003000002007
:1005500040420F00FEE72DE9F041064602F008F8A0
:1005600000F048F800F016F8054600F013F80746CA
:1005700000F010F8044600F00DF8804600F00AF88C
:10058000E9190A1902EB0801814201D13570747032
:10059000BDE8F0812DE9F0410025154F2C460126DC
:1005A0004021384600F06CFC0028F9D0282002F0E9
:1005B00047FB4021384600F063FC90B1C4F10701CD
:1005C00006FA01F02843C5B24021384600F058FC35
:1005D0000028F9D1641CE4B2082CE1D32846BDE818
:1005E000F081C4F1070006FA00F08543ECE7000053
:1005F0000008014070B50024282002F021FB0B4DBB
:100600004021284600F03CFC40B9502002F018FB85
:100610004021284600F034FC00B101244021284646
:1006200000F02EFC0028F9D1204670BD00080140E2
:10063000014800F013BA00009001002030B590F896
:1006400040500124AC40C56B6C6004686360436833
:10065000102B036803D099600068C26030BD9A60B7
:100660000068C16030BD70470C4D4FF496776C1F29
:10067000E61D0A48FFF76FFF2978E170687820715E
:10068000B170F070A078401CA070384602F094FB66
:100690000121A06902F096FFEBE7000005000020B1
:1006A00072B6FEE7F8B50024009490F824202546A1
:1006B000012A12D0012280F824204A681F23072A29
:1006C0000DD20668776B521E02EB820293409F4365
:1006D0000B6893401F43776319E00220F8BD06685A
:1006E0000D2A0AD2376BD21F02EB820293409F433E
:1006F0000B6893401F43376309E0F76A0D3A02EB3A
:10070000820293409F430B6893401F43F7620A683D
:10071000072306680A2A0AD3F7680A3A02EB42025C
:1007200093409F438B6893401F43F76008E037690D
:1007300002EB420293409F438B6893401F43376113
:100740000A68102A01D0112A20D1124B02689A425D
:1007500017D193681B0219D4936843F40003936084
:100760000968102912D10C490C4A0968B1FBF2F151
:1007700001EB8101490000E0491E00910029FBD1F5
:1007800004E0816A41F020018162012480F8245054
:100790002046F8BD002401403000002040420F00F8
:1007A00070477047704700002DE9F0414FF0000797
:1007B00004003D467ED0A06A002628B9E66284F88F
:1007C0002460204600F07EF82046FFF721FEA16A53
:1007D000C90600D420B1A06A40F01000A06269E010
:1007E000A16A21F4885141F00201A1626268E169C5
:1007F000237B0A4347EA43010A43A1684FF4807709
:10080000B94209D0012907D05FF0000194F814C063
:10081000BCF1010F02D00AE03946F7E7F3B1A36A51
:1008200043F02003A362E36A43F00103E362236819
:10083000D3F804C02CF4694C4CEA010CC3F804C092
:1008400021688B68DFF870C003EA0C0313438B60E8
:10085000A168B9420BD0012909D00CE0DFF85CC0D7
:10086000A3690CEB43330B4343F40061DFE7218AB8
:100870000D05A5F580152168CB6A23F470032B4381
:10088000CB62216889680E4B1940914208D1E6621B
:10089000A16A21F0020141F00101A162BDE8F081ED
:1008A000A06A20F0020040F01000A062E06A40F070
:1008B0000100E0620120F1E7FDF7E1FF00E0FFFF4A
:1008C000FE0E1FFF70B586B0002506460095019507
:1008D000029503950068194988422DD11849886905
:1008E00040F400708861886900F4007004908869A1
:1008F00040F0040088618869694600F004000490B3
:100900000320009001900F4800F0CAF90F4C0E48E8
:10091000C4E900058020C4E9025040002061800045
:1009200060612020C4E90605204600F041F908B1C5
:10093000FFF7B6FE3462666206B070BD0024014067
:100940000010024000080140080002409001002011
:100950002DE9F047894604463B4900683B4F0E1D90
:100960009046884201D0B84207D1306810F4702F09
:1009700003D001252846BDE8F08794F8240001281B
:100980000CD0012084F824002046FFF7A5FD0500C7
:100990004FF0000004D084F82400EBE70220EAE7DF
:1009A000A16A40F60162914341F48071A16221681D
:1009B000B94218D1326812F4702F14D0A16A41F4F0
:1009C0008011A1623168490505D5A16A21F4005161
:1009D00041F48051A162A16AC9040AD5E16A21F0FB
:1009E0000601E16206E0A26A22F48012A26249686E
:1009F000E9E7E06284F82400216A15488862216AE8
:100A00001448C862216A1448086321686FF0020024
:100A100008602068816841F48071816021684346E4
:100A20004A464C31206A00F0F1F820688168C1F331
:100A300042410729816803D041F48011816099E720
:100A400041F4A001FAE70000002401400028014021
:100A500067040008CF040008B50400082DE9F05F22
:100A6000C16B0C6801680B68D0F840C0042202FA20
:100A70000CF2494DDFF824A1494E4A4FDFF828B166
:100A8000DFF828E122422CD05A072AD50A689206BC
:100A900003D40A6822F004020A600168A94201D165
:100AA000042219E0514501D1402215E0B14202D1A2
:100AB0004FF4806210E0B94202D14FF480420BE063
:100AC000594502D14FF4802206E0714502D14FF41E
:100AD000800201E04FF080622F4908394A60C16A04
:100AE0003BE04FF0020808FA0CF818EA040F4FF048
:100AF00000094FF0010235D05FEA837832D50B68E8
:100B00009B0605D40B6823F00A030B6080F82120B4
:100B10000168A94201D1022219E0514501D12022E8
:100B200015E0B14202D14FF4007210E0B94202D197
:100B30004FF400520BE0594502D14FF4003206E069
:100B4000714502D14FF4001201E04FF000721249DA
:100B500008394A6080F82090816A00291AD0BDE8DF
:100B6000F05F0847082505FA0CF5254212D01B074F
:100B700010D50B6823F00E030B6090F84010C36B88
:100B800002FA01F15960826380F8212080F82090F8
:100B9000016BE2E7BDE8F09F080002401C00024044
:100BA0003000024044000240580002406C00024005
:100BB00030B528B308C8134914221944B1FBF2F127
:100BC0008900C16310498163022141771A6843F6A5
:100BD000F0718A43D0E900142143D0E902452C4347
:100BE000214304692143446921438469214311431A
:100BF000196000214163012242770177084630BD28
:100C0000012030BDF8FFFDBF0000024070B5044672
:100C100090F82000002501280CD0012084F8200045
:100C200094F821600020012E06D084F820000225CF
:100C3000284670BD022070BD022684F82160A063A2
:100C40002068066826F0010606602046FFF7F6FCDD
:100C5000E06A00282068016802D041F00E0106E039
:100C600021F0040101602068016841F00A0101607F
:100C70002068016841F001010160D9E770B50446C0
:100C800000F008F90546601C02D0044800780444CE
:100C900000F000F9401BA042FAD370BD24000020F0
:100CA0002DE9F84FDFF8B891002409F1040A0AF1A0
:100CB000040B23460F270BF1040EC9E00125A540C4
:100CC0002A40AA427DD1674ED1F804C0ACEB060899
:100CD000B44532D014DCBCF1030F3AD009DCBCF1CE
:100CE000000F2AD0BCF1010F1CD0BCF1020F31D192
:100CF0001DE0BCF1110F17D0BCF1120F2AD119E081
:100D0000B8F5881F19D006DCB8F5803F15D0B8F5C6
:100D1000801F1FD111E0B8F5001F0ED0B8F5041FD9
:100D200018D10AE0CB6815E0CB681B1D12E0CB6838
:100D300008330FE0CB680C330CE08B682BB1012B30
:100D40004FF0080303D0456104E0042302E005618D
:100D500000E00023FF2A01D8064601E000F1040666
:100D60004FEA840501D9A5F12005D6F8008007FADD
:100D700005FC28EA0C0803FA05F548EA0508C6F858
:100D800000804D68ED0062D5374DAE6946F0010632
:100D9000AE61AD6924F0030605F001050095334D01
:100DA00006EB050CDCF80850A607360F07FA06F824
:100DB00025EA0805DFF8B880404503D14FF0000868
:100DC00017E044E0DFF8AC80404502D14FF0010865
:100DD0000FE0DFF8A480404502D14FF0020808E0A0
:100DE000DFF89880404502D14FF0030801E04FF052
:100DF000040808FA06F848EA0508CCF808804D68A7
:100E0000D9F80060ED034D4601D5164300E0964346
:100E10002E604D68DAF80060AD03554601D51643E3
:100E200000E096432E604D68DBF80060ED025D4601
:100E300001D5164300E096432E604D68DEF8006051
:100E4000AD02754601D5164300E096432E60641C42
:100E50000D682A46E5407FF431AFBDE8F88F000009
:100E60000004014000001110001002400000014089
:100E700000080140000C0140001001400014014036
:100E80008068084000D0012070470AB101617047B6
:100E90000904FBE701488068704700002400002037
:100EA0000248816802781144816070472400002064
:100EB000074810B5016841F010010160032000F0FF
:100EC000A7F80F2000F006F800F050F8002010BD41
:100ED0000020024030B505461F4887B0C16941F087
:100EE0000401C161C06906A900F00400009001A8D6
:100EF00000F0ACF90498B0B100F0CEF94000174909
:100F0000174AB0FBF1F11748491E0260416040F2F8
:100F1000E7320021C0E903218160816100F0B0FE69
:100F2000040003D015E000F0B7F9E8E70D4800F041
:100F3000E7FE04000DD11E2000F03CF8102D07D272
:100F4000002229461E2000F043F80748056000E013
:100F5000012407B0204630BD0010024040420F007F
:100F60000008004028040020280000200F4808B591
:100F7000816941F001018161816901F00101009104
:100F8000C16941F08051C161C069002200F0805008
:100F900000900F21901E00F01BF80548416821F0D9
:100FA000E06141F00071416008BD000000100240A6
:100FB00000000140002809DB00F01F0201219140E0
:100FC0004009800000F1E020C0F8001170470000E7
:100FD000F0B40E4B1B680C46C3F30223C3F10705A4
:100FE000042D00D90425191D072901D2002300E092
:100FF000DB1E012606FA05F1491E214099409E405C
:10100000761E16403143F0BC01F00ABE0CED00E044
:10101000064900F0070208684FF6FF03184040EA4F
:101020000220034A10430860704700000CED00E006
:101030000000FA052DE9F84305460078354CC00755
:1010400054D0E0690026C00008D4E06940F0805028
:10105000E061E069012600F0805000902E480168B0
:10106000C90512D40168804641F480710160FFF720
:1010700011FF074605E000BFFFF70CFFC01B642807
:1010800023D8D8F80000C005F6D5206A10F44070C7
:1010900021D0A98801F4407181421CD0206A1F49E7
:1010A000012220F440700A6000220A602062C0071A
:1010B00011D0FFF7EFFE074641F2883808E000BF85
:1010C000FFF7E8FEC11B414502D90320BDE8F883C4
:1010D000206A8007F4D5206A696820F440700843CC
:1010E00020621EB1E06920F08050E061287880071E
:1010F00005D56068A96820F44040084360602878FE
:10110000C00605D56068E96820F480000843606087
:101110000020DBE700100240007000404004424223
:101120002DE9F0470F46050061D0434E306800F0CE
:101130000700B84209D2306820F007003843306019
:10114000306800F00700B84251D128683B4C810755
:1011500012D5400703D5606840F4E06060602878ED
:10116000000703D5606840F4605060606068A9685B
:1011700020F0F000084360602878C00728D0686835
:10118000012810D02168022810D0890700292EDA02
:10119000616821F0030101436160FFF77BFE804637
:1011A00041F288390DE021688903EFE78901EDE715
:1011B000FFF770FEA0EB0801494502D90320BDE806
:1011C000F0876068696800F00C00B0EB810FEFD128
:1011D000306800F00700B8420BD9306820F00700F3
:1011E00038433060306800F00700B84201D0012079
:1011F000E5E72878400705D56068E96820F4E060F5
:10120000084360602878000706D56068296920F4E3
:10121000605040EAC100606000F04EF86168084A22
:10122000C1F30311515CC8400649086006480068D4
:10123000FFF750FE0020C2E70020024000100240ED
:10124000583A000830000020280000200F220260D9
:101250000C4A536803F003034360536803F0F00340
:101260008360536803F4E063C36052684FF4E06343
:1012700003EAD20202610448006800F00700086037
:101280007047000000100240002002400148006842
:101290007047000030000020044805490068496894
:1012A000044AC1F30221515CC8407047300000205D
:1012B00000100240683A000812A185B00FC98DE8FD
:1012C0000F0014A0144A006804905168134801F0FC
:1012D0000C03042B10D0082B0ED1C1F38343C90398
:1012E0001DF803000AD5516804AAC1F34041515CBE
:1012F0000A4A5043B0FBF1F005B070470849484333
:10130000FAE7000002030405060708090A0B0C0DA2
:101310000E0F1010010200000010024000127A00AF
:1013200000093D002DE9F84F040070D02078C04D31
:10133000C00749D06868C0F38100012807D06868F9
:10134000C0F38100022809D16868C00306D5286867
:10135000800339D560680028E7D035E06068B0F5D3
:10136000803F0BD010B1B0F5A02F11D0286820F429
:1013700080302860286820F4802002E0286840F44B
:1013800080302860606890B1FFF784FD06460AE06F
:10139000286840F480202860F0E700BFFFF77AFD5E
:1013A000801B642873D828688003F7D50CE0FFF70A
:1013B00071FD064605E000BFFFF76CFD801B642849
:1013C000F0D828688003F7D420789A4E80074FF031
:1013D00001094FF0000839D5686810F00C0F07D0EC
:1013E0006868C0F38100022809D16868C00306D488
:1013F0002868800714D52069012808D110E02069E9
:10140000B0B1C6F80090FFF745FD074605E00AE1D8
:10141000FFF740FDC01B0228C4D828688007F7D515
:101420002868616920F0F80040EAC10028600DE0FA
:10143000C6F80080FFF72EFD074604E0FFF72AFDFF
:10144000C01B022823D828688007F7D4207800071B
:101450002CD57948A169D9B1C0F80090FFF71AFDE1
:10146000074604E0FFF716FDC01B02280FD8686A84
:101470008007F7D571484FF4FA510068B0FBF1F0DE
:10148000009000BF0098411E0091FAD20EE080E06B
:10149000C0F80080FFF7FEFC074604E0FFF7FAFC07
:1014A000C01B022875D8686A8007F7D420784007E7
:1014B00060D5E8690027C00008D4E86940F0805092
:1014C000E861E869012700F0805000905C480168FD
:1014D000C90513D40168834641F480710160FFF7A8
:1014E000D9FC824606E000BFFFF7D4FCA0EB0A005F
:1014F00064284ED8DBF80000C005F5D5E068012867
:101500000AD008B1052813D0286A20F0010028620B
:10151000286A20F0040002E0286A40F001002862F6
:10152000E06841F2883B98B1FFF7B4FC82460BE0DB
:10153000286A40F004002862EEE700BFFFF7AAFC2B
:10154000A0EB0A0159455AD8286A8007F6D50CE065
:10155000FFF7A0FC824605E0FFF79CFCA0EB0A0128
:1015600059454CD8286A8007F6D41FB1E86920F0A5
:101570008050E861E06988B36968C1F3810102299C
:1015800044D00228C6F8608004D0FFF783FC0446EC
:1015900038E034E0FFF77EFC074604E0FFF77AFC12
:1015A000C01B02282BD828688001F7D4206AB0F528
:1015B000803F05D16868A16820F400300843686066
:1015C000D4E908010843696821F47411084368608C
:1015D000C6F86090FFF75EFC044606E025E000BF19
:1015E000FFF758FC001B022809D828688001F7D5AE
:1015F0001BE000BFFFF74EFC001B022802D90320AE
:10160000BDE8F88F28688001F4D40EE00128F7D0F7
:101610006868226A00F48031914204D1616A00F462
:101620007010884201D00120EAE70020E8E70000BE
:10163000001002400000424280044242300000207C
:101640000070004090F85100704770B5040009D058
:10165000606A002540B125616561A56294F851007A
:1016600040B10CE0012070BD6068B0F5827FF4D01D
:10167000E561F2E784F85050204600F03FF8022080
:1016800084F851002068016821F040010160A088C1
:10169000218900F4827001F404410843A18901F416
:1016A00000610843217C01F002010843217D01F023
:1016B00001010843218B01F400710843217F01F0EF
:1016C0003801084394F8201001F080010843218D6F
:1016D00001F40051084321680860A069042101EA6F
:1016E0001040216848602068C16921F40061C1612F
:1016F0006565012084F85100002070BD30B585B0CB
:1017000000240094019402940394006815498842CF
:1017100025D11548C16941F48041C161C16901F415
:1017200080410491816941F00801816180690F4D18
:1017300000F0080004904FF4204000900220019037
:101740000320039069462846FFF7AAFA4FF4804029
:10175000CDE90004694628460294FFF7A1FA05B0D6
:1017600030BD00000038004000100240000C014075
:101770002DE9F84F044640680025984616460F4666
:101780004FF0040BB0F5827F01D1A06888B194F8C6
:101790005000012818D0012084F85000FFF77AFB90
:1017A000814694F851004FF0000A01280ED002251E
:1017B00082E084F851B013460A462046CDF80080F6
:1017C00000F036F9BDE8F88F0220FBE7002F72D059
:1017D000002E70D084F851B0C4F854A0A763A68737
:1017E000E687C4F830A0A4F834A0A4F836A0C4F862
:1017F00040A0C4F844A0A068B0F5004F09D120680B
:10180000016821F0400101602068016821F48041F5
:10181000016020680168490603D4016841F0400175
:101820000160E068D8B139E020688168C90709D053
:10183000007BA16B0870A06B401CA063E08F401E72
:10184000E0870CE0FFF726FBA0EB0901414503D33D
:10185000B8F1FF3F03D036E0B8F1000F33D0E08F8E
:101860000028E1D11DE020688168C90709D0C0685F
:10187000A16B0880A06B801CA063E08F401EE087F6
:101880000CE0FFF707FBA0EB0901414503D3B8F1DA
:10189000FF3F03D017E0B8F1000F14D0E08F00280D
:1018A000E1D14A464146204600F0A2FF08B120207F
:1018B0006065606D00B10125012084F8510084F855
:1018C00050A028467EE70325F6E72DE9F84F0446A9
:1018D00090F8500000271D461646894601280DD075
:1018E0004FF0010B84F850B0FFF7D4FA804694F81B
:1018F0005100BA46012804D0022793E00220BDE837
:10190000F88FB9F1000F73D0002E71D0032084F846
:101910005100C4F854A0C4F83090A686E686C4F8F6
:1019200038A0A4F83CA0A4F83EA0C4F844A0C4F891
:1019300040A0A068B0F5004F09D12068016821F0EF
:10194000400101602068016841F480410160206825
:101950000168490603D4016841F040010160E06874
:10196000B0F5006F606803D030B3012E24D041E0A1
:1019700008B1012E1CD1206B21680088C86006E0E8
:1019800020688168890709D5216B0988C160206BAF
:10199000801C2063E08E401EE08609E0FFF77AFAA3
:1019A000A0EB0800A84202D3681C01D031E07DB34F
:1019B000E08E0028E4D120E0206B216800780873D5
:1019C00006E020688168890709D5216B09780173D1
:1019D000206B401C2063E08E401EE0860AE0FFF78B
:1019E00059FAA0EB0800A84203D3681C02D010E00B
:1019F00017E06DB1E08E0028E3D14246294620462B
:101A000000F024FF08B120206065A06818B106E04E
:101A1000FFE7032706E02068C16880680090606DDA
:101A200000B1012784F851B084F850A0384666E729
:101A30002DE9F84F044690F8500000270A9E1D46F5
:101A400092468B464FF0010901280ED0012084F800
:101A50005000FFF71FFA804694F851006168012892
:101A60000CD0B1F5827F07D102E00220BDE8F88FEB
:101A7000A16809B9042801D00227C2E0BBF1000F18
:101A800027D0BAF1000F24D01DB394F851000428D8
:101A900002D0052084F8510000206065C4F838A009
:101AA000E587A587C4F830B0E586A5862064606424
:101AB00020680168490603D4016841F040010160D3
:101AC000E068B0F5006F606805D0E8B3012D46D03E
:101AD0007FE0012795E008B1012D39D1206B216805
:101AE0000088C860206B801C2063E08E401EE0866A
:101AF0002EE02068816889070FD5E18E69B1B9F1C0
:101B0000010F0AD1216B0988C160206B801C206302
:101B1000E08E401EE0864FF0000920688168C9070A
:101B20000CD0E18F51B1C068A16B0880A06B801C04
:101B3000A063E08F401EE0874FF00109FFF7AAF98C
:101B4000A0EB0800B04200E009E001D3701C50D1C6
:101B5000E08E0028CDD1E08F0028CAD13FE0206B75
:101B6000216800780873206B401C2063E08E401EC3
:101B7000E0862EE02068816889070FD5E18E69B183
:101B8000B9F1010F0AD1216B09780173206B401C58
:101B90002063E08E401EE0864FF0000920688168D7
:101BA000C9070CD0E18F51B1C068A16B0870A06B60
:101BB000401CA063E08F401EE0874FF00109FFF753
:101BC00069F9A0EB0800B04202D3701C01D010E00C
:101BD0007EB1E08E0028CDD1E08F0028CAD14246E8
:101BE0003146204600F032FE28B1012720206065F2
:101BF00007E0032705E0A06818B92068C16880687D
:101C00000090012084F85100002084F850003846EC
:101C10002CE770477047000070B590F83C20012A0F
:101C200026D0012480F83C40022280F83D20036841
:101C30005A689D6822F070060A6832435A600D4B5C
:101C400002689A4208D0B2F1804F05D00A4B9A42FE
:101C500002D00A4B9A4204D1496825F08003194307
:101C6000916080F83D40002180F83C10084670BD2E
:101C7000022070BD002C014000040040000800401C
:101C800010B5040003D094F83D0010B107E0012026
:101C900010BD002084F83C00204600F01FF8022010
:101CA00084F83D00211D206800F0ACFE012084F87E
:101CB000460084F83E0084F83F0084F8400084F831
:101CC000410084F8420084F8430084F8440084F81A
:101CD000450084F83D00002010BD000008B50068F4
:101CE000B0F1804F08D10548C16941F00101C161DF
:101CF000C06900F00100009008BD00000010024023
:101D000090F83D10012901D001207047022180F890
:101D10003D100168CA6842F00102CA6000680B49C0
:101D2000884208D0B0F1804F05D00949884202D0DE
:101D30000849884204D1816801F00701062903D0CF
:101D4000016841F00101016000207047002C014052
:101D5000000400400008004070B5044690F83C00C4
:101D6000012817D0012584F83C50022084F83D005A
:101D70002068826822F0770222F47F42826008683D
:101D8000502830D00DDC20284DD005DC98B3102829
:101D90003BD148E0022070BD302844D0402834D1E7
:101DA00039E0602828D0702806D0B0F5805F2CD0AC
:101DB000B0F5005F29D10AE0CB68D1E901212068A4
:101DC00000F056FE2068816841F0770109E0CB6899
:101DD000D1E90121206800F04BFE2068816841F4C0
:101DE0008041816011E0CA684968206800F0F4FE13
:101DF0005021206807E016E0CA684968206800F0B2
:101E0000FCFE6021206800F03DFE84F83D5000207B
:101E100084F83C0070BDCA684968206800F0DCFEA8
:101E200040212068EFE7226801461046EBE7704743
:101E300070B50446006801694FF00005C943890781
:101E400015D4C168C943890711D4E91E0161012075
:101E50002077206880698007204602D0FFF7E7FFDF
:101E600004E000F0C7F8204600F056F92577206816
:101E70000169C943490717D4C168C943490713D445
:101E80006FF004010161022020772068806910F45E
:101E9000407F204602D0FFF7CAFF04E000F0AAF816
:101EA000204600F039F9257720680169C943090700
:101EB00016D4C168C943090712D46FF00801016143
:101EC000042020772068C0698007204602D0FFF7F1
:101ED000AEFF04E000F08EF8204600F01DF92577F3
:101EE00020680169C943C90617D4C168C943C90636
:101EF00013D46FF010010161082020772068C069B9
:101F000010F4407F204602D0FFF791FF04E000F07C
:101F100071F8204600F000F9257720680169C9436F
:101F2000C90708D1C168C943C90704D1891E016125
:101F3000204600F0F3F820680169C943090609D476
:101F4000C168C943090605D46FF0800101612046CC
:101F5000FFF75FFE20680169C943490609D4C168DB
:101F6000C943490605D46FF040010161204600F0E5
:101F7000DFF820680169C94389060BD4C168C943E9
:101F8000890607D46FF0200101612046BDE870404A
:101F9000FFF740BE70BD000000B585B00021009184
:101FA0000191029103910068B0F1804F1AD10E485F
:101FB000816941F0080181618069694600F008008B
:101FC0000490082000900220019003900748FEF73B
:101FD00067FE0748416821F4407141F0E06141F437
:101FE0008071416005B000BD00100240000C01404E
:101FF00000000140704770B5044690F83C000D4663
:1020000001280AD0012084F83C0042B1042A18D0EB
:10201000082A2AD00C2A4DD139E0022070BD206850
:1020200000F038FD2068816941F008018161206875
:10203000816921F004018161206881692A69114365
:1020400011E0206800F04EFD2068816941F40061D4
:1020500081612068816921F48061816120688169E2
:102060002A6941EA0221816124E0206800F066FDCE
:102070002068C16941F00801C1612068C16921F08F
:102080000401C1612068C1692A69114311E0206817
:1020900000F080FD2068C16941F40061C1612068E1
:1020A000C16921F48061C1612068C1692A6941EA7E
:1020B0000221C161002084F83C0070BD10B504000D
:1020C00003D094F83D0010B107E0012010BD0020BE
:1020D00084F83C00204600F01EF8022084F83D0001
:1020E000211D206800F08EFC012084F8460084F851
:1020F0003E0084F83F0084F8400084F8410084F8F2
:10210000420084F8430084F8440084F8450084F8D1
:102110003D00002010BD7047704700000068034973
:10212000884201D1FEF7BCBE7047000000080040A5
:102130007047FEE708B501F037FA0D4C4FF0FF3558
:10214000A0610122009500231146A06901F080FAE8
:10215000E061C007F5D00649C8230422C91D05481F
:1021600000F088F90128ECD16078401C6070E8E745
:102170000000002064010020F8B5044641F0800012
:102180008DF8000017461E46A18800222068FEF741
:102190007CFE4FF4FA652B4601226946A069FFF7E1
:1021A00094FBA069FFF74EFA0128FAD12B4632467C
:1021B0003946A069FFF789FBA069FFF743FA0128B8
:1021C000FAD1A18801222068FEF75FFEF8BD70B544
:1021D0000C460546012100F09CF8024644B1012C52
:1021E0000BD0032C0FD0052C13D0062C17D01BE0DE
:1021F000002002F0F802E86116E0012002F0F80287
:10220000521CE86110E0032002F0F802D21CE861E1
:102210000AE0052002F0F802521DE86104E0062001
:1022200002F0F802921DE8612846BDE870400121E5
:1022300000F062B970B504460021FFF7C8FF0A201C
:10224000FEF71CFD0121204600F063F805460A2038
:10225000FEF714FD45F080020121204600F04CF904
:102260006420FEF70BFD2046216A00F08DF894F8FB
:102270002A10204600F0C7F894F82B10204600F0F2
:10228000A3F823220C21204600F036F9204600F066
:10229000E1F894F82410204600F0BFF8FF221F2137
:1022A000204600F029F994F8250094F82610000142
:1022B00000EB4100C2B21D21204600F01DF9208D27
:1022C0002021020A204600F017F994F82820212145
:1022D000204600F011F94021204600F01AF840F0A5
:1022E0003F024021204600F007F901212046FFF778
:1022F0006EFF0120E0610A20FEF7C0FC422120466B
:1023000000F007F8122802D04FF4CA7070BDC82040
:1023100070BD0EB501F07F018DF8081001210A464D
:10232000009101AB02A900F003F89DF804000EBD76
:102330002DE9F0470E461546044681889846DDF89B
:10234000209000680022FEF7A0FD4FF4FA673B469C
:102350002A463146A069FFF7B8FAA069FFF772F97B
:102360000128FAD13B464A464146A069FFF700FAE8
:10237000A069FFF767F90128FAD1A1882068BDE8B4
:10238000F0470122FEF781BD70B50546C80444112F
:10239000C4F307420621284600F0AEF80520FEF7F8
:1023A0006DFCC4F307220721284600F0A5F805209C
:1023B000FEF764FCE2B20821284600F09DF8BDE873
:1023C00070400520FEF75ABC10B52D2901D22D21F1
:1023D00005E0F02901D9F02106E0782904D805228A
:1023E0002D3991FBF2F103E00A221E31B1FBF2F12B
:1023F000C9B22031CAB20B2100F07EF8BDE810400E
:102400000A20FEF73BBC10B50A46092100F074F81B
:10241000BDE810400A20FEF731BC70B50C460646F8
:102420000C2901DD0C2402E0072C00DA07241E2110
:10243000FFF76FFF05460A20FEF720FC64F31F1527
:10244000EAB21E21304600F057F8BDE870400A207D
:10245000FEF714BC10B504461E21FFF75AFF40F0EA
:1024600007021E21204600F047F8BDE810400A2070
:10247000FEF704BC2DE9F0410F461C461646804687
:102480000121C569FFF7A3FE0E214046FFF741FF7A
:1024900002460D21404600F02FF8324622214046E8
:1024A00000F02AF833463A4600214046FFF764FE22
:1024B00003214046FFF78BFE12214046FFF729FF1C
:1024C00000070BD5FF221221404600F015F82946DF
:1024D0004046FFF77CFE0120BDE8F081641E240425
:1024E000240C03D00120FEF7C9FBE5E7294640464E
:1024F000FFF76DFE0020EFE70EB541F080018DF88B
:10250000081001218DF804200A46009101AB02A9B0
:1025100000F001F80EBD2DE9F0470E4615460446C1
:1025200081889846DDF8209000680022FEF7ADFC17
:102530004FF4FA673B462A463146A069FFF7C5F9D2
:10254000A069FFF77FF80128FAD13B464A46414689
:10255000A069FFF7BAF9A069FFF774F80128FAD16A
:10256000A1882068BDE8F0470122FEF78EBC00007C
:102570001A4810B5016821F080710160016841F0CE
:10258000807101601648016821F001010160016855
:1025900041F0010101600021416000BF00BF00BFA8
:1025A0004068104C4021204600F0C6F9002240212E
:1025B0002046FEF76AFC44F2506000F041FB012225
:1025C00040212046FEF761FC142000F039FB204634
:1025D000BDE81040402100F0A5B90000FCED00E08E
:1025E000001000E000080140FEB5002416480094E9
:1025F00001941449029401608915816001250573D5
:102600000475022606614FF460214460C161FEF743
:10261000CBF808B172B6FEE707200094CDE901506F
:1026200069460948FEF73EF808B172B6FEE7CDE903
:10263000005669460448FEF735F8002801D072B606
:10264000FEE7FEBD00240140940000202DE9F0418A
:1026500086B000242A48009401940294039481696E
:1026600041F020018161816901F0200104918169BB
:1026700041F004018161816901F0040104918169E3
:1026800041F00801816180691E4F00F0080004904C
:10269000002208213846FEF7F8FB01223021384697
:1026A000FEF7F3FBDFF86080012260214046FEF771
:1026B000ECFB042001258DE8310069463846FEF721
:1026C000EFFA38200226CDE90005CDE90246694639
:1026D0003846FEF7E5FA6020CDE90005CDE902466F
:1026E00069464046FEF7DCFA802000900748CDE9B5
:1026F000010469464046FEF7D3FA06B0BDE8F08112
:102700000010024000080140000C014000001110C0
:102710000F4810B50D4901604FF4827141600021EE
:102720008160C1604FF400720161C0E9051210229E
:10273000C0E90721416281620A21C162FEF785FF7B
:10274000002801D072B6FEE710BD0000003800403E
:10275000C400002010B58EB000240794089409949A
:102760000A940B941C2168460C94FDF7ABFD1E489F
:102770004FF08041016040F29F51C0E9011440F2E6
:10278000E731C0E903148461FFF77AFA08B172B641
:10279000FEE74FF48050079007A91348FFF7DCFAD3
:1027A00008B172B6FEE71048FFF788FC08B172B6B0
:1027B000FEE70B940BA90C480C94FFF72DFA08B117
:1027C00072B6FEE76020CDE9000402940422694657
:1027D00005480494FFF70FFC08B172B6FEE7024803
:1027E000FFF7DAFB0EB010BD1C010020FEE7FEE78C
:1027F000F8B5044640684FF48273984217D1A06838
:102800004FF48065B0F5004F01D0A8420FD1206889
:10281000066826F0400606606068984207D1A06806
:10282000A84204D100920B460022012103E000924D
:102830000B4600228021204600F018F8002804D022
:10284000606D40F0200060650320F8BD38B50B4690
:10285000009204460022802100F008F8002804D0ED
:10286000606D40F020006065032038BD2DE9F8431D
:102870001E46914688460446089DFEF70BFB401B0A
:10288000351AFEF707FB074625480068C0F3CB3032
:10289000684338E0701C37D0FEF7FCFAC01BA84232
:1028A00003D215B1009860B32CE02068416821F094
:1028B000E00141606068B0F5827F0BD1A068B0F59F
:1028C000004F02D0B0F5806F04D12068016821F07C
:1028D00040010160A06AB0F5005F09D1206801687D
:1028E00021F4005101602068016841F40051016049
:1028F000012084F85100002084F850000320BDE836
:10290000F8830025401E00902068816838EA0100A5
:1029100004D000214945BDD10020F0E70121F9E7AD
:10292000300000201FB50022009101920292039214
:102930006946FEF7B5F91FBD1FB5002200910121C0
:10294000CDE90112022103916946FEF7A9F91FBDE5
:1029500010B5502080F31188BFF34F8FBFF36F8FF6
:1029600000F0B4FF18B104494FF080500860002017
:1029700080F3118810BD000004ED00E030B593B085
:1029800028216846FDF79EFC14210AA8FDF79AFC51
:10299000002501200F9510951195010412958DE8E1
:1029A000230004904FF4E010CDE9081002240794AE
:1029B0006846FEF7B7FC08B172B6FEE70AA90F2019
:1029C00081E831004FF48060CDE90D0502210AA8AD
:1029D000FEF7A6FB08B172B6FEE74FF40040119077
:1029E0000F940FA8FEF726FB002801D072B6FEE771
:1029F00013B030BD704700000148FFF719BA00005E
:102A000028040020F0B50268164B174C174D4FF004
:102A10008047984205D0B84203D0A04201D0A842D6
:102A200003D122F070064A683243984205D0B8427A
:102A300003D0A04201D0A84203D122F44074CA6856
:102A400022434C6922F08002224302608A68C262FB
:102A50000A688262984201D10969016301214161DA
:102A6000F0BD0000002C01400004004000080040C0
:102A700010B5846842EA032224F47F440A432243C7
:102A8000826010BD826822F070020A4342F00701A2
:102A90008160704730B5026A22F001020262026A68
:102AA0004368846924F073050C682C4322F0020506
:102AB0008A682A430A4DA8420BD122F00805CA6849
:102AC00023F440732A434D6922F004021D438B69AD
:102AD0002B434360846149684163026230BD00005A
:102AE000002C014030B5026A22F010020262026A34
:102AF000436884690D6824F4E64444EA05248D683B
:102B000022F0200242EA05120B4DA8420ED1CD68F8
:102B100022F0800242EA05124D6923F4406343EA41
:102B200085038D6922F0400243EA85034360846196
:102B300049688163026230BD002C014030B5026AF1
:102B400022F480720262036A4268C46923F400734B
:102B500024F073050C682C438D6843EA05230C4D63
:102B6000A8420ED1CD6823F4006343EA05234D69E2
:102B700022F4405242EA05128D6923F4806342EA4E
:102B800005124260C4614968C163036230BD000040
:102B9000002C014030B5026A22F480520262046ABD
:102BA0004268C3690D6823F4E64343EA05238D6850
:102BB00024F4005444EA0534064DA84204D14D697A
:102BC00022F4804242EA85124260C361496801648E
:102BD000046230BD002C014010B5036A046A24F081
:102BE00001040462846924F0F00444EA021423F02E
:102BF0000A020A438461026210BD10B5036A23F021
:102C0000100303628369046A23F4704343EA0232C7
:102C100024F0A00343EA01118261016210BDFEE7C6
:102C20000907090E002804DB00F1E02080F80014F9
:102C3000704700F00F0000F1E02080F8141D70478D
:102C400031B5084C6568FEF721FB0749B0FBF1F090
:102C500000994143081A00916168491B8142FBD3E6
:102C600038BD0000001000E040420F008CB0FEF7BD
:102C70001FF9FFF783FEFFF7E9FC3448416941F093
:102C8000010141614069002200F00100009005212E
:102C90000B20FEF79DF90B20FEF78CF9FFF7A4FC43
:102CA000FFF736FDFFF756FD684600F069F82C2265
:102CB00069462748FDF7D4FA25482649202202C054
:102CC000012420F8082B402240F8041C02804160B7
:102CD000802101811E49A039C16040F2B1114161DA
:102CE0000721017641768476FF2181778221C177A1
:102CF000092181831648FFF79DFAC82801D116489B
:102D00000470154904200C31CDE900010023802214
:102D100012A1144800F074FD0F4905201031CDE9CF
:102D200000010023802210A1114800F069FD0A492A
:102D300003201431CDE90001002380220DA10F48AA
:102D400000F05EFD00F03FF8FEE7000000100240DA
:102D500064010020000C0140000000205461736BEE
:102D6000303200008D0300085461736B3031000075
:102D7000352100085461736B303300006906000888
:102D800000B58BB040F2B111089107218DF82410E5
:102D90008DF8251001218DF82610FF218DF82A10BD
:102DA00064218DF82B100821ADF828102C226946DB
:102DB000FDF756FA0BB000BD10B500B9012000F0C8
:102DC00001FB002010BD10B500F082FB002010BDFB
:102DD0002DE9F041184C0F46054666692068001D34
:102DE00000F020FA38B9206890F82C1001208840B3
:102DF000A1698143A161681C07D137B12168BDE891
:102E0000F0410E48091D00F05DBA20683544B54216
:102E10004560216805D2A068BDE8F041091D00F0B9
:102E200039BA6068091D00F035FA206B854200D27E
:102E30002563BDE8F0810000340000204C0500202F
:102E40002DE9F041054600F049FA2E4C2069401C5E
:102E5000206120682C4F10B1E06940B32DE025605F
:102E60002069012829D1002606EB860007EB8000A7
:102E700000F002FA761C072EF6D323488C3000F0BF
:102E8000FBF92148A03000F0F7F91F48B43000F0FA
:102E9000F3F91D48C83000F0EFF91B48DC3000F0B2
:102EA000EBF919488C3060601430A06005E02068B0
:102EB000E96AC06A884200D82560E06A401CE06286
:102EC000E96A0120A26988401043A06101EB8100FA
:102ED00007EB8000291D00F0F5F900F01FFAE0690A
:102EE00000280CD02068E96AC06A884207D20749E6
:102EF0004FF080500860BFF34F8FBFF36F8FBDE876
:102F0000F0810000340000207004002004ED00E097
:102F100010B5044690F8510058B101280CD0022891
:102F20000FD0502080F31188BFF34F8FBFF36F8F06
:102F3000FEE7206B00F006FA2046BDE8104000F0E6
:102F400001BA10BD10484FF44061420706D0C01DC1
:102F50000D4920F00700411AC1F540610B4A0023DA
:102F60000144C2E900030839103A21F00701116059
:102F70004B600B600B1AC0E9001393604FF00040E8
:102F80005360D06070470000600500208000002082
:102F9000144E154CA6F1C8074FF08058DFF84C903E
:102FA00012E000BF00F09AF9F068C568281D00F033
:102FB00039F92069401E2061E068401EE06000F0A1
:102FC000ADF92846FFF7A4FFE0680028EAD1386889
:102FD0000128F9D9C9F80080BFF34F8FBFF36F8F75
:102FE000F2E70000380500203400002004ED00E086
:102FF0002DE9F0479A46DDE9098481466FF0030325
:10300000206B03EB82021044089D20F00706700736
:1030100007D0502080F31188BFF34F8FBFF36F8F1D
:10302000FEE723180A5C83F834200A5C12B1401CC6
:103030001028F6D3002784F84370072D00D3062507
:10304000E562C4E91157201D00F021F904F11800D0
:1030500000F01DF92461C5F107006462A061E76416
:1030600084F8507052464946304600F0C9F8206056
:10307000B8F1000F01D0C8F80040BDE8F0870000AB
:1030800030B5114900E011460A688242FBD34B6813
:103090005C18844203D1406818444860084643687D
:1030A0001C18944209D1084C103C2468A24209D053
:1030B00052681A4442600A6812680260814200D075
:1030C000086030BD0460F9E78000002006484168D0
:1030D000096829B14168C968C968496801637047CE
:1030E0004FF0FF31FAE70000340000200848406844
:1030F000401C4FF0500080F3118804D0BFF34F8F75
:10310000BFF36F8FFEE7BFF34F8FBFF36F8FFEE705
:10311000880000200346002012B1994302D0704776
:103120000B42FCD0012070472DE9F04105460027F5
:1031300000F004FA314E306808B9FFF703FFF06879
:1031400005424BD1C5B3083568070ED005F007001E
:10315000C0F108000544680707D0502080F31188AB
:10316000BFF34F8FBFF36F8FFEE72DB370688542BB
:1031700034D82248103001460C6801E020460C4645
:103180006168A94202D221680029F7D131688C42D6
:1031900024D007682168016060680837411B102946
:1031A0000FD96019420708D0502080F31188BFF36F
:1031B0004F8FBFF36F8FFEE710E041606560FFF750
:1031C0005FFF61687068401A7060B268904200D218
:1031D000B060F06801430020C4E9000100F0DAFBB0
:1031E000780707D0502080F31188BFF34F8FBFF3CB
:1031F0006F8FFEE73846BDE8F081000070000020C8
:1032000010B5031F4FF080741C601B1F21F00101DB
:103210001960191F024B0B60143940380A6010BD49
:10322000ED300008D0E9013201699A60D0E901234C
:103230005A604A68824201D182684A600022026173
:103240000868401E08600868704700000449086864
:103250000A688069D26A0968C2F107028A61704708
:1032600034000020034B036003F154000860802009
:1032700010607047D401002000F108014FF0FF32C8
:10328000C0E90112C16001610021016070470021A5
:103290000161704730B50B685A1C02D000F108027A
:1032A00002E0026904E02246546825689D42FAD98A
:1032B00053684B6099608A60516008610168491CDD
:1032C000016030BD42684A6093688B6093685960C2
:1032D000916008610168491C01607047502080F3CB
:1032E0001188BFF34F8FBFF36F8F0A494868401CA6
:1032F000486001280CD10848006810F0FF0F07D083
:10330000502080F31188BFF34F8FBFF36F8FFEE71C
:10331000704700008800002004ED00E0084948687C
:1033200028B1401E486001D180F3118870475020B9
:1033300080F31188BFF34F8FBFF36F8FFEE700005C
:103340008800002070B5002827D0144DA0F1080493
:103350006168E868014207D1502080F31188BFF30B
:103360004F8FBFF36F8FFEE722683AB1502080F392
:103370001188BFF34F8FBFF36F8FFEE7814361600A
:1033800000F0DCF860686968084468602046FFF770
:1033900077FEBDE8704000F0FDBA70BD70000020FF
:1033A0004FF0E02000210161816105494FF47A72FC
:1033B0000968B1FBF2F1491E4161072101617047C3
:1033C0003000002010B5020014D00F48806B38B1D7
:1033D000502080F31188BFF34F8FBFF36F8FFEE74C
:1033E00000F0ACF800211046FFF7F2FC00F0D2FA32
:1033F000002807D105494FF080500860BFF34F8F78
:10340000BFF36F8F10BD00003400002004ED00E01A
:1034100010B51446030011D01048826BB2B1026897
:1034200041F000419161016818461831FFF74AFFE9
:103430002046BDE810400121FFF7CABC502080F3B0
:103440001188BFF34F8FBFF36F8FFEE7502080F3DB
:103450001188BFF34F8FBFF36F8FFEE7340000205A
:1034600070B5194EB26BFAB141F000410160C46809
:1034700014B3FFF7D7FE201DFFF7D4FEE16A012544
:10348000B26905FA01F01043B06101EB81000F4908
:1034900001EB8000211DFFF715FFE06A3168C96A62
:1034A000884200D9756270BD502080F31188BFF347
:1034B0004F8FBFF36F8FFEE7502080F31188BFF36B
:1034C0004F8FBFF36F8FFEE73400002070040020A1
:1034D00010B586B00024039405AA04A903A8049497
:1034E000FFF7C0FEDDE903010094CDE901100023E0
:1034F0000EA11048059A00F0B0F90F490028486362
:1035000011D0502080F31188BFF34F8FBFF36F8F1E
:103510004FF0FF3008630120C8614C6106B0BDE880
:10352000104000F019B906B010BD000049444C45E8
:1035300000000000912F0008340000200248816B39
:10354000491C816370470000340000201448816BDF
:1035500011B1012141627047002141628169B1FAD4
:1035600081F1C1F11F0101EB81020E4951F82230B6
:103570006BB101EB820101F108034A6852684A60AD
:103580009A4201D152684A60D16801607047502068
:1035900080F31188BFF34F8FBFF36F8FFEE70000FA
:1035A000340000207004002070B51C20FFF7BCFD23
:1035B000040005D00025201D2560FFF75DFE25765F
:1035C000204670BD2DE9F0410027884604000AD04E
:1035D0005FEA18600FD0502080F31188BFF34F8F3F
:1035E000BFF36F8FFEE7502080F31188BFF34F8F3A
:1035F000BFF36F8FFEE7261D04F10C05FFF79EFF5A
:103600002168F06841EA0801216017E0D0E900165E
:1036100001F07F425301236821F07F4102D40B4225
:1036200003D10AE031EA030307D1D20100D50F43E9
:10363000216841F00071FFF713FF3046A842E5D141
:103640002068B843206000F0A5F92068BDE8F0814B
:103650002DE9F0479A46DDF8209090460D4604008B
:103660004FF0000709D0280E0FD0502080F31188AA
:10367000BFF34F8FBFF36F8FFEE7502080F31188A9
:10368000BFF34F8FBFF36F8FFEE71DB100F010F94E
:1036900040B112E0502080F31188BFF34F8FBFF389
:1036A0006F8FFEE7B9F1000F07D0502080F311882B
:1036B000BFF34F8FBFF36F8FFEE7FFF73FFF266823
:1036C000524629463046FFF725FD30B1B8F1000FCC
:1036D0001AD02068A843206016E0B9F1000F13D07B
:1036E000B8F1000F01D04FF08077BAF1000F01D090
:1036F00047F0806745EA07014A46201DFFF788FE2C
:1037000000F048F918B10AE000F044F91FE011494F
:103710004FF080500860BFF34F8FBFF36F8FFFF7FC
:1037200095FD0646800110D4FFF7D8FD2668524665
:1037300029463046FFF7EEFC28B1B8F1000F02D061
:103740002068A8432060FFF7E9FD26F07F46304659
:10375000BDE8F08704ED00E01CB52649087801902B
:10376000FF20087008788DF800009DF800009DF893
:10377000002000F0F000904207D0502080F3118824
:10378000BFF34F8FBFF36F8FFEE79DF800001A4B1A
:1037900000F0500018700720986005E09DF80020A8
:1037A00052008DF80020401E9DF800201206F5D42E
:1037B0009860032807D0502080F31188BFF34F8F03
:1037C000BFF36F8FFEE74FF4407098600198087068
:1037D0000A48016841F470010160016841F07041DC
:1037E0000160FFF7DDFD00205860FCF7DFFC0020E2
:1037F0001CBD000000E400E08800002020ED00E097
:103800002DE9FF5F8346DDE90E87994616468A4615
:103810009000FFF789FC05001CD05420FFF784FCC2
:10382000040014D00020256384F85100CDE9024043
:10383000CDE900874B46324651465846FFF7D8FB44
:103840002046FFF7FDFA012004B0BDE8F09F2846AE
:10385000FFF778FD4FF0FF30F6E7F0B585B0DDE912
:103860000B640A9DA6B1DCB154270097266302269B
:1038700084F85160002604AFCDE90246CDE9005737
:10388000FFF7B6FB2046FFF7DBFA049805B0F0BD62
:10389000502080F31188BFF34F8FBFF36F8FFEE787
:1038A000502080F31188BFF34F8FBFF36F8FFEE777
:1038B0000548C16919B1806B18B10020704701201B
:1038C0007047022070470000340000202DE9F041CD
:1038D0002E4C0027A06B40B1206A401C2062606A19
:1038E00000B101273846BDE8F0816669761C666143
:1038F00013D16068006838B1502080F31188BFF39D
:103900004F8FBFF36F8FFEE76068A1686160A060B2
:10391000A06A401CA062FFF7D9FB206BDFF8708023
:10392000864209D36068006880B16068C068C56875
:10393000686886420DD220632068C06A00EB80016F
:1039400058F821000128CAD90127C8E74FF0FF30F5
:10395000F1E7281DFFF766FCA86A18B105F1180009
:10396000FFF760FCE86A0121A26981401143A1616F
:1039700000EB800108EB8100291DFFF7A3FCE86A3A
:103980002168C96A8842CDD30127CBE734000020E3
:10399000700400202DE9F0472C4D00242746A86B29
:1039A00038B1FFF79BFCA86B401EA863A86B40B121
:1039B00046E0502080F31188BFF34F8FBFF36F8F25
:1039C000FEE72969224E0120D1B3A6F1B409804651
:1039D0003068E8B1F068C46804F11800FFF722FC11
:1039E000201DFFF71FFCE06AAA6908FA00F11143E5
:1039F000A96100EB800109EB8100211DFFF762FC4A
:103A0000E06A2968C96A8842E2D3C5F82480DFE702
:103A10000CB1FFF75BFB2C6A44B14646FFF756FF3B
:103A200000B16E62641EF9D100202862686A38B164
:103A30000849012738070860BFF34F8FBFF36F8F26
:103A4000FFF76CFC3846BDE8F0870000340000202A
:103A50002405002004ED00E000000000000000004C
:103A60000102030406070809000000000102030424
:103A7000903A00080000002094000000280100088F
:103A8000243B0008940000202C170000440100088B
:103A90000000000000000000000000000000000026
:103AA0000000000000000000000000000000000016
:103AB00000000000010000001000000000000000F5
:103AC0000024F400000000000000000000000000DE
:103AD00000000000000000000000000000000000E6
:103AE00000000000000000000000000000000000D6
:103AF00000000000000000000000000000000000C6
:103B000000000000000000000000000000000000B5
:103B1000000000000000000000000000AAAAAAAAFD
:043B200000000000A1
:04000005080000ED02
:00000001FF
